:0200000480007A
:100000006F00000B1300000013000000130000003D
:100010001300000013000000130000001300000094
:10002000232E11FE232C51FE232A61FE232871FE6C
:100030002326A1FE2324B1FE2322C1FE2320D1FECC
:10004000232EE1FC232CF1FC232A01FD232811FDA2
:100050002326C1FD2324D1FD2322E1FD2320F1FD30
:10006000130101FCEF00C0108320C1038322810330
:1000700003234103832301030325C1028325810256
:1000800003264102832601020327C1018327810140
:100090000328410183280101032EC100832E810022
:1000A000032F4100832F010013010104730020304E
:1000B000971100009381018E138101A017050000A4
:1000C0001305450D970500009385C50C6308B50021
:1000D00023200500130545006FF05FFF17050000A2
:1000E0001305050B1301C1FF970500009385450A11
:1000F000630EB50083260500130545002320A100EB
:10010000E7800600032501006FF01FFE1301410088
:10011000371500001305058873104530372500009A
:100120001305858073100530EF0080006F0000001C
:10013000130101FE232E810013040102B70700F012
:10014000938747001307F00F23A0E700B70700F0DD
:1001500083A7070093D7870093C7F7FF2326F4FEF2
:10016000B70700F00327C4FE23A0E7006FF01FFECF
:10017000130101FF23268100130401011300000075
:0C0180000324C10013010101678000008E
:04018C00000000006F
:040000058000000077
:00000001FF
